:1000000026C1000054C1000052C1000050C10000D0
:100010004EC100004CC100004AC1000048C10000B0
:1000200046C1000044C1000042C1000040C10000C0
:100030003EC100003CC100003AC1000038C10000D0
:1000400036C1000034C1000032C1000030C10000E0
:100050002EC100002CC100002AC1000024C40000F1
:1000600026C1000000C30000D5C2000020C100006E
:100070001EC100001CC100001AC1000018C1000010
:1000800016C1000014C1000012C1000010C1000020
:100090000EC100000CC100000AC1000008C1000030
:1000A00006C1000004C1000002C1000000C1000040
:1000B000FEC00000FCC00000FAC00000F8C0000054
:1000C000F6C00000F4C00000F2C00000F0C0000064
:1000D000EEC00000ECC00000EAC00000E8C0000074
:1000E000E6C00000D306D906DF06EB06F706860752
:1000F00003070C07150721072D0739074A0756077D
:10010000860762076E077A07A802AB029A029E0270
:10011000A402E202AF02B302B902BD02C102C702E9
:10012000CB02CF02E202D502D902DD0200000A0BA7
:1001300002090C0D0E080703040100000000000076
:1001400000000000000000000000000000000000AF
:10015000000000000000000012111000000000006C
:10016000000000000000000000000000000000008F
:10017000000000002100240027002A002D0030008C
:10018000330001010000040107010A010000220000
:10019000250028002B002E00310034000201000051
:1001A000050108010B0100002000230026002900A2
:1001B0002C002F003200000100000301060109019C
:1001C00005050505070508080808020202020A0AD3
:1001D00008080404040401010101010101010303F1
:1001E000030303030303040707070C0C0C0C0C0C9C
:1001F0000C0C0202020206060606060606060B0B99
:100200000B0B0B0B0B0B01021020200808102040D9
:1002100010204080020102010804020101020408CA
:100220001020408080402010080402018004020158
:1002300080402010080402010804020101020408A1
:10024000102040800102040810204080F415112481
:100250001FBECFEFD1E2DEBFCDBF00E00CBF15E087
:10026000A0E0B2E0E0E5F1E300E00BBF02C00790E0
:100270000D92AE3EB107D9F726E0AEEEB5E001C073
:100280001D92A73DB207E1F711E0C7E2D1E000E01F
:1002900006C021970109802FFE010E948618C632F0
:1002A000D10780E00807A9F7ADD40C94A618A8CE12
:1002B000CF92DF92EF92FF920F931F93CF93DF9332
:1002C0006C017A018B01C0E0D0E0CE15DF0589F02A
:1002D000D8016D918D01D601ED91FC910190F081D5
:1002E000E02DC6011995892B11F47E0102C02196DB
:1002F000ECCFC701DF91CF911F910F91FF90EF904D
:10030000DF90CF900895089580E090E00895FC017B
:10031000538D448D252F30E0842F90E0821B930B6A
:10032000541710F0CF96089501970895FC01918D10
:10033000828D981761F0828DDF01A80FB11D5D9647
:100340008C91928D9F5F9F73928F90E008958FEFB5
:100350009FEF0895FC01918D828D981731F0828D69
:10036000E80FF11D858D90E008958FEF9FEF0895C0
:10037000FC01918D228D892F90E0805C9F4F821B24
:1003800091098F73992708958AE396E0F1DF21E0C0
:10039000892B09F420E0822F0895FC01848DDF0170
:1003A000A80FB11DA35ABF4F2C91848D90E00196E8
:1003B0008F739927848FA689B7892C93A089B189D7
:1003C0008C9180648C93938D848D981306C00288E1
:1003D000F389E02D80818F7D80830895EF92FF92D5
:1003E0000F931F93CF93DF93EC0181E0888F9B8D58
:1003F0008C8D981305C0E889F989808185FD23C01B
:10040000F62E0B8D10E00F5F1F4F0F731127E02E9C
:100410008C8DE8120BC00FB607FCFACFE889F9897A
:10042000808185FFF5CFCE01B8DFF2CF8B8DFE0145
:10043000E80FF11DE35AFF4FF0820B8FEA89FB8929
:100440008081806207C0EE89FF896083E889F9892D
:1004500080818064808381E090E0DF91CF911F9163
:100460000F91FF90EF900895CF93DF93EC01888D6B
:100470008823C1F0EA89FB89808185FD05C0A889B0
:10048000B9898C9186FD0EC00FB607FCF5CF80812F
:1004900085FFF2CFA889B9898C9185FFEDCFCE0178
:1004A0007CDFE8CFDF91CF91089580E090E0892B49
:1004B00019F06ADF811125C080E090E0892B41F0BE
:1004C00080E090E0892B21F00E94000081111CC087
:1004D00080E090E0892B41F080E090E0892B21F0D2
:1004E0000E940000811113C080E090E0892BA1F0F0
:1004F00080E090E0892B81F00E94000081110AC009
:1005000008950E940000D8CF0E940000E1CF0E9411
:100510000000EACF0C940000089590E0FC013197B0
:10052000E231F10508F04EC08827EC57FF4F8F4F9E
:100530000C948618809180008F7703C08091800092
:100540008F7D80938000089580918000877FF9CF10
:1005500084B58F7702C084B58F7D84BD0895809166
:10056000B0008F7703C08091B0008F7D8093B00082
:100570000895809190008F7707C0809190008F7DC3
:1005800003C080919000877F8093900008958091B0
:10059000A0008F7707C08091A0008F7D03C080915D
:1005A000A000877F8093A0000895809120018F771D
:1005B00007C0809120018F7D03C080912001877F3B
:1005C0008093200108953FB7F8948091360690916A
:1005D0003706A0913806B091390626B5A89B05C00C
:1005E0002F3F19F00196A11DB11D3FBFBA2FA92FB2
:1005F000982F8827820F911DA11DB11DBC01CD012F
:1006000042E0660F771F881F991F4A95D1F708951A
:100610000E94A2181F920F920FB60F9211240BB6D0
:100620000F922F933F934F935F936F937F938F938B
:100630009F93AF93BF93EF93FF938AE396E0ADDE72
:10064000FF91EF91BF91AF919F918F917F916F91AA
:100650005F914F913F912F910F900BBE0F900FBE66
:100660000F901F9018951F920F920FB60F921124A2
:100670000BB60F922F938F939F93EF93FF93E0917D
:100680004A06F0914B068081E0915006F0915106A8
:1006900082FD12C09081809153068F5F8F732091ED
:1006A0005406821751F0E0915306F0E0E65CF94FF2
:1006B000958F8093530601C08081FF91EF919F91A8
:1006C0008F912F910F900BBE0F900FBE0F901F9028
:1006D0001895CF93DF93282F30E0F901E45DFE4FAA
:1006E0008491F901EA5FFD4FD491F901E054FE4F86
:1006F000C491CC2389F0811110DFEC2FF0E0EE0FD4
:10070000FF1FEA55FE4FA591B491EC91ED2381E0D6
:1007100090E021F480E002C080E090E0DF91CF9192
:1007200008951F93CF93DF93282F30E0F901E45D04
:10073000FE4F8491F901EA5FFD4FD491F901E05435
:10074000FE4FC491CC23C1F0162F8111E6DEEC2FB1
:10075000F0E0EE0FFF1FE457FE4FA591B4918FB765
:10076000F894111105C09C91ED2FE095E92302C08A
:10077000EC91ED2BEC938FBFDF91CF911F910895FA
:10078000CF93DF9390E0FC01EA5FFD4F2491FC01E1
:10079000E054FE4F8491882361F190E0880F991F07
:1007A000FC01EE58FE4FC591D491FC01E457FE4F79
:1007B000A591B491611109C09FB7F89488812095E3
:1007C00082238883EC912E230BC0623061F49FB7A3
:1007D000F8943881822F809583238883EC912E2B87
:1007E0002C939FBF06C08FB7F894E8812E2B2883E7
:1007F0008FBFDF91CF910895863308F08653909193
:100800007B00282F2870977F922B90937B00877016
:10081000806480937C0080917A00806480937A0069
:1008200080917A0086FDFCCF80917800209179003C
:1008300090E0922B08958F929F92AF92BF92CF92A9
:10084000DF92EF92FF926B017C01BDDE4B015C01F8
:10085000C114D104E104F104E9F0B5DEDC01CB01FF
:1008600088199909AA09BB09883E9340A105B105D9
:1008700078F321E0C21AD108E108F10888EE880E69
:1008800083E0981EA11CB11CC114D104E104F10441
:1008900021F7DECFFF90EF90DF90CF90BF90AF9029
:1008A0009F908F9008951F920F920FB60F92112470
:1008B0002F933F938F939F93AF93BF938091320673
:1008C00090913306A0913406B091350630913106EF
:1008D00023E0230F2D3720F40196A11DB11D05C083
:1008E00026E8230F0296A11DB11D209331068093A7
:1008F000320690933306A0933406B0933506809168
:10090000360690913706A0913806B09139060196C7
:10091000A11DB11D8093360690933706A09338062B
:10092000B0933906BF91AF919F918F913F912F91D5
:100930000F900FBE0F901F901895E0913A06F0911E
:100940003B060190F081E02D682F8AE396E0199430
:10095000009761F0FC0101900020E9F73197AF01A9
:10096000481B590BBC018AE396E0A2CC80E090E0E2
:1009700008958F929F92AF92BF920F931F93CF9340
:10098000DF93CDB7DEB7A1970FB6F894DEBF0FBEE9
:10099000CDBF19A2423008F44AE08E010F5D1F4F0F
:1009A000842E912CA12CB12CA50194010E946418D5
:1009B000E62FB901CA0101501109EA3014F4E05DD3
:1009C00001C0E95CD801EC93232B242B252B61F784
:1009D000C801BEDFA1960FB6F894DEBF0FBECDBF33
:1009E000DF91CF911F910F91BF90AF909F908F900B
:1009F0000895AECFCF92DF92EF92FF92CF93DF9325
:100A00006C01990FEE08FF08F7FE10C08DE295DF2C
:100A1000EC0166277727CB016C197D098E099F09A8
:100A20004AE0A7DF7C01EC0EFD1E05C04AE0C701CD
:100A3000B6019FDF7C0184E592E08ADF8E0D9F1D69
:100A4000DF91CF91FF90EF90DF90CF900895CF93FB
:100A5000DF937EDFEC0184E592E07ADF8C0F9D1F4F
:100A6000DF91CF9108954F925F926F927F928F9214
:100A70009F92AF92BF92CF92DF92EF92FF926B0163
:100A80007C01B42E9B01AC010E944D18882319F003
:100A900081EE95E027C026013701E89477F82FEF23
:100AA0003FEF4FE75FE7C301B2010E944D1881118C
:100AB0000DC02FEF3FEF4FE75FE7C301B2010E9488
:100AC0009C1618161CF485EE95E00CC02FEF3FEF36
:100AD0004FE75FE4C701B6010E94E61718167CF4E1
:100AE00089EE95E0FF90EF90DF90CF90BF90AF90B0
:100AF0009F908F907F906F905F904F9029CF2FEFB6
:100B00003FEF4FE75FECC701B6010E949C1687FDDF
:100B1000E7CF20E030E0A901C701B6010E949C1692
:100B200087FF08C08DE209DF4C01F7FAF094F7F86F
:100B3000F09402C0812C912CA12C60E070E080E048
:100B40009FE3AB1441F020E030E040E251E40E942A
:100B5000A016A394F6CF9B01AC01C701B6010E9479
:100B600038162B013C010E9408176B017C010E9482
:100B700034179B01AC01C301B2010E9437162B014F
:100B80003C014AE0C701B601F4DE7C01E80CF91C27
:100B9000BB2021F08EE2D1DEE80EF91EDB2CDD2039
:100BA00019F120E030E040E251E4C301B2010E94BB
:100BB000EA172B013C010E9408174B01A12CB12C14
:100BC0004AE0C501B401D5DEE80EF91EC501B40145
:100BD0000E9434179B01AC01C301B2010E94371679
:100BE0002B013C01DA94DBCFC701FF90EF90DF903F
:100BF000CF90BF90AF909F908F907F906F905F90BD
:100C00004F900895789484B5826084BD84B58160E6
:100C100084BD85B5826085BD85B5816085BD8091C7
:100C20006E00816080936E0010928100809181003F
:100C30008260809381008091810081608093810037
:100C4000809180008160809380008091B1008460F9
:100C50008093B1008091B00081608093B00080915A
:100C600091008260809391008091910081608093D7
:100C70009100809190008160809390008091A1000C
:100C800082608093A1008091A10081608093A10087
:100C90008091A00081608093A000809121018260FA
:100CA00080932101809121018160809321018091B5
:100CB000200181608093200180917A00846080937C
:100CC0007A0080917A00826080937A0080917A0025
:100CD000816080937A0080917A00806880937A00A6
:100CE0001092C100E0914A06F0914B0682E08083A9
:100CF000E0914606F09147061082E0914806F09197
:100D000049068FEC808310925206E0914E06F091D6
:100D10004F0686E08083E0914C06F0914D0680817D
:100D200080618083E0914C06F0914D06808188605F
:100D30008083E0914C06F0914D068081806880832D
:100D4000E0914C06F0914D0680818F7D8083C4E157
:100D5000D2E08881229660E013DD22E0CE32D20715
:100D6000C1F7C2E0D2E01881229661E0812F08DD50
:100D700061E0812FD6DC42E0C231D407A1F761E007
:100D80008AE0FEDCE6E3F1E0E4918E2F90E0FC01E6
:100D90003197E231F10508F0B9C08827EE58FF4FCE
:100DA0008F4F0C94861884B5806884BD80E587BD1C
:100DB000B0C084B5806284BD80E588BDAAC0809142
:100DC000800080688093800080E590E090938900A7
:100DD000809388009EC08091800080628093800014
:100DE00080E590E090938B0080938A0092C0809180
:100DF000800088608093800080E590E090938D0073
:100E000080938C0086C08091B00080688093B00091
:100E100080E58093B3007DC08091B00080628093B4
:100E2000B00080E58093B40074C080919000806829
:100E30008093900080E590E09093990080939800D3
:100E400068C08091900080628093900080E590E07F
:100E500090939B0080939A005CC080919000886082
:100E60008093900080E590E090939D0080939C009B
:100E700050C08091A00080688093A0008091A00065
:100E80008F7B8093A00080E590E09093A9008093F1
:100E9000A8003FC08091A00080628093A00080E500
:100EA00090E09093AB008093AA0033C08091A000A3
:100EB00088608093A00080E590E09093AD008093DF
:100EC000AC0027C08091200180688093200180E5DC
:100ED00090E090932901809328011BC0809120010C
:100EE00080628093200180E590E090932B018093B5
:100EF0002A010FC08091200188608093200180E545
:100F000090E090932D0180932C0103C060E08AE073
:100F100008DC61E08BE034DC61E08BE002DC60E067
:100F20008EE02EDC60E08FE02BDC60E080E128DCEE
:100F300060E081E125DC60E082E122DC60E083E1C9
:100F40001FDC61E08CE01CDC80E090E00E94211658
:100F500090E09093300680932F06019759F58EE329
:100F600092E047DD80E090E00E942116682F70E05B
:100F700080E090E04AE0FDDC84E592E0E9DC61E0BD
:100F80008CE0CFDB6AEF70E080E090E054DC60E062
:100F90008CE0C7DB6AEF70E080E090E04CDC61E061
:100FA0008CE0BFDB6AEF70E080E090E044DC60E062
:100FB0008CE0B7DB80912F0690913006892B09F0E9
:100FC0003BC087E592E015DD80E090E00E942116AD
:100FD000682F70E080E090E04AE0CBDC84E592E0AE
:100FE000B7DC61E08CE09DDB6AEF70E080E090E0D0
:100FF00022DC60E08CE095DB6AEF70E080E090E05E
:101000001ADC61E08CE08DDB6AEF70E080E090E05C
:1010100012DC60E08CE085DB6AEF70E080E090E05D
:101020000ADC61E08CE07DDB6AEF70E080E090E05C
:1010300002DC60E08CE075DBC3E0D0E052E0252EFE
:10104000312C02E010E06AE0A62EB12C72E0872E6F
:10105000912C48ECE42EF12C412C512C320186E3EA
:10106000CBDBBC01990F880B990B0E94361720E04F
:1010700030E040EA50E40E94EA1720E030EC4FE70D
:1010800054E40E94A01620E030E040E250E40E94C8
:10109000371624EA30E74DE35EE30E94A0169B0179
:1010A000AC01C301B2010E9438162B013C0181E062
:1010B000E81AF108A1F620E030E048E453E4C30167
:1010C000B2010E94A0162B013C01609302067093AE
:1010D0000306809304069093050624EF3DEF44E356
:1010E0005FE30E94EA176B017C016093FE05709339
:1010F000FF05809300069093010620E030E046E66D
:1011000053E40E94EA176093FA057093FB058093FD
:10111000FC059093FD05A3019201C701B6010E9451
:10112000381620E030E040E05FE30E94EA17609369
:101130001D0670931E0680931F069093200638ECC0
:10114000E32EF12C412C512C320187E355DBBC01FD
:10115000990F880B990B0E94361720E030E040EA87
:1011600050E40E94EA1720E030EC4FE754E40E947C
:10117000A01620E030E040E250E40E94371624EA56
:1011800030E74DE35EE30E94A0169B01AC01C30172
:10119000B2010E9438162B013C0191E0E91AF108D6
:1011A000A1F620E030E048E453E4C301B2010E941C
:1011B000A0162B013C016093F6057093F705809310
:1011C000F8059093F90524EF3DEF44E35FE30E94B7
:1011D000EA176B017C016093F2057093F30580932D
:1011E000F4059093F50520E030E046E653E40E94D4
:1011F000EA176093EE057093EF058093F0059093E6
:10120000F105A3019201C701B6010E94381620E042
:1012100030E040E05FE30E94EA176093210670939C
:101220002206809323069093240680912F069091A6
:101230003006892B09F074C184E14BDA019791F4EF
:101240008091150690911606892B61F48091130602
:1012500090911406892B31F481E13BDA7C010197EE
:1012600009F43FC784E135DA019779F480911506D6
:1012700090911606019749F480E12BDA892B29F425
:1012800081E127DA892B09F43FC784E122DA7C0166
:101290000197A9F48091150690911606892B79F48F
:1012A0008091130690911406892B49F480E111DA9C
:1012B000892B29F481E10DDA892B09F438C7809153
:1012C000150690911606019759F480E102DA01970C
:1012D00039F48091080690910906C29709F43AC73B
:1012E00080E1F7D90197F1F481E1F3D9892BD1F4A9
:1012F0008EE0EFD9892BB1F48091130690911406FA
:10130000892B81F48091150690911606892B51F452
:1013100085E1DFD9019731F483E1DBD97C010197C5
:1013200009F437C785E1D5D9019779F4809113067F
:1013300090911406019749F480E1CBD9892B29F4C7
:1013400081E1C7D9892B09F437C785E1C2D9019753
:10135000D1F48091150690911606892BA1F4809105
:10136000130690911406892B71F480E1B2D9892B70
:1013700051F481E1AED9892B31F483E1AAD97C0102
:10138000019709F42CC780911306909114060197D8
:1013900059F481E19ED9019739F480910806909122
:1013A0000906C29709F42EC786E193D90197C1F4C3
:1013B0008091190690911A06892B91F48091170655
:1013C00090911806892B61F48FE083D97C0181E02C
:1013D000E816F10429F481E17CD9892B09F431C79D
:1013E00086E177D9019779F48091190690911A06D0
:1013F000019749F48EE06DD9892B29F48FE069D9E2
:10140000892B09F431C786E164D97C0191E0E916A2
:10141000F104A9F48091190690911A06892B79F4A8
:101420008091170690911806892B49F48EE051D9C6
:10143000892B29F48FE04DD9892B09F428C7809195
:10144000190690911A06019759F48EE042D9019736
:1014500039F480910A0690910B06C29709F42AC7C5
:101460008EE037D90197D1F48FE033D9892BB1F4CD
:101470008091170690911806892B81F480911906A6
:1014800090911A06892B51F487E123D9019731F401
:1014900083E11FD97C01019709F42BC787E119D992
:1014A000019779F48091170690911806019749F4F5
:1014B0008EE00FD9892B29F48FE00BD9892B09F401
:1014C0002BC787E106D90197D1F480911906909135
:1014D0001A06892BA1F48091170690911806892B82
:1014E00071F48EE0F6D8892B51F48FE0F2D8892B75
:1014F00031F483E1EED87C01019709F424C780918F
:10150000170690911806019759F48FE0E2D80197D9
:1015100039F480910A0690910B06C29709F426C708
:1015200080912F0690913006019709F00AC28091B0
:101530000606909107068F359140B4F0809115060C
:1015400090911606019781F48091190690911A06E0
:10155000892B51F48FE0BDD8019731F483E1B9D8DC
:101560007C01019709F421C7809115069091160618
:10157000019769F480E1ADD8019749F48FE0A9D8CB
:10158000019729F48EE0A5D8892B09F421C7809111
:10159000150690911606892B79F480911906909181
:1015A0001A06019749F48EE094D8019729F48FE048
:1015B00090D8892B09F41FC78091150690911606C3
:1015C0000197B1F48091190690911A06892B81F444
:1015D0008EE07FD8892B61F48FE07BD8892B41F492
:1015E00083E177D87C0181E0E816F10409F41AC799
:1015F0008091190690911A06019729F48EE069D816
:10160000019709F422C78091190690911A06892B37
:1016100069F484E15ED8019749F480E15AD80197D2
:1016200029F48EE056D8892B09F42EC7809119062B
:1016300090911A06029729F48EE04BD8019709F48D
:1016400036C78EE046D80197E1F48FE042D8892B67
:10165000C1F48091170690911806892B91F480911E
:10166000130690911406892B61F485E132D8019715
:1016700041F483E12ED87C0191E0E916F10409F4EC
:1016800035C785E126D8019779F4809117069091A6
:101690001806019749F48EE01CD8892B29F48FE0B5
:1016A00018D8892B09F435C785E113D80197E1F4DF
:1016B0008091190690911A06892BB1F48091170632
:1016C00090911806892B81F48EE003D8892B61F460
:1016D0008FE00E946903892B39F483E10E9469033A
:1016E0007C01019709F42CC7809117069091180688
:1016F000019731F48FE00E946903019709F433C721
:1017000084E10E9469030197C9F4809115069091C4
:101710001606892B99F48091190690911A06892B47
:1017200069F48091130690911406892B39F481E1B4
:101730000E9469037C01019709F438C784E10E9483
:101740006903019789F48091150690911606019717
:1017500059F480E10E946903892B31F481E10E94F0
:101760006903892B09F435C784E10E9469037C0170
:101770000197E9F48091150690911606892BB9F42A
:101780008091190690911A06892B89F4809113068D
:1017900090911406892B59F480E10E946903892BEA
:1017A00031F481E10E946903892B09F429C78091F2
:1017B000150690911606019731F480E10E946903A5
:1017C000019709F430C78091170690911806019788
:1017D000E9F481E10E946903892BC1F48EE00E9443
:1017E0006903892B99F48091130690911406892B33
:1017F00069F48091150690911606892B39F483E1DE
:101800000E9469037C01019709F428C785E10E94C1
:1018100069030197B9F48FE00E946903019791F47D
:101820008091170690911806892B61F48091130618
:1018300090911406039731F481E10E946903892B8A
:1018400009F41FC78091170690911806892B89F417
:101850008091130690911406019759F480E10E943B
:101860006903892B31F481E10E946903892B09F412
:1018700017C780911706909118060197F9F4809187
:10188000150690911606892BC9F480911306909144
:101890001406892B99F480E10E946903892B71F465
:1018A00081E10E946903892B49F483E10E94690365
:1018B0007C0181E0E816F10409F409C785E10E9482
:1018C0006903019711F58091170690911806892BED
:1018D000E1F48091130690911406892BB1F4809164
:1018E000150690911606892B81F48FE00E946903FA
:1018F000019759F481E10E946903892B31F483E156
:101900000E946903019709F4F5C68091130690912E
:101910001406039731F481E10E946903019709F4E9
:10192000FCC68091150690911606019751F480919E
:101930000606909107060196909307068093060687
:1019400059D88EE00E946903019739F080912D06E5
:1019500090912E06019739F419C080E10E94690325
:101960000197A1F713C080912B0690912C06019747
:1019700069F08091290690912A06019739F08091AB
:10198000270690912806019709F057C089E10E9427
:101990006903019739F48091290690912A06892BD1
:1019A00009F4D6C689E10E946903019709F4EFC6DC
:1019B00089E10E9469037C01019709F405C783E16D
:1019C0000E946903019709F413C788E10E94690323
:1019D000019709F415C788E10E946903019709F48A
:1019E00033C788E10E9469037C01019709F434C779
:1019F00082E10E946903019709F442C78AE10E94CB
:101A00006903019709F444C78AE10E9469030197B9
:101A100009F462C78BE10E946903019709F46AC760
:101A20008BE10E946903019709F48AC780912B0614
:101A300090912C06019709F491C78CE10E946903EB
:101A4000019771F410921C0610921B068EE792E02B
:101A50000E94F90480911B0690911C060E94FA04D2
:101A600080912D0690912E060197C9F580912B0645
:101A700090912C06892B99F580911B0690911C065C
:101A8000019690931C0680931B06B5010E94511885
:101A9000892B51F089E892E00E94F90480911B069D
:101AA00090911C060E94FA0480911B0690911C06DE
:101AB000813D9943A4F061E089E00E94910361E0D7
:101AC00088E00E94910310922C0610922B0610922F
:101AD0002E0610922D0610921C0610921B06809165
:101AE0002B0690912C060197C9F580912D069091B7
:101AF0002E06892B99F580911B0690911C06019664
:101B000090931C0680931B06B5010E945118892BE7
:101B100051F081E992E00E94F90480911B069091B6
:101B20001C060E94FA0480911B0690911C068932C3
:101B30009A40A4F061E089E00E94910361E088E0AE
:101B40000E94910310922C0610922B0610922E06E2
:101B500010922D0610921C0610921B0680911906F9
:101B600090911A06019739F0809117069091180606
:101B7000019779F407C08EE00E9469030197A1F7ED
:101B80000C94CA158FE00E946903019711F40C941C
:101B9000CA158091150690911606019739F080912B
:101BA000130690911406019771F407C080E10E941A
:101BB00069030197A1F70C94DF1581E10E94690385
:101BC000019709F4FCC78091190690911A0618161E
:101BD0001906B4F080911706909118061816190688
:101BE0007CF080911506909116061816190644F09F
:101BF0008091130690911406181619060CF050C027
:101C0000E0900D06F0900E06E114F10431F0C701EA
:101C1000B1010E945118892B49F460910C0681E0B2
:101C2000682760930C068CE00E949103FFEFEF1A87
:101C3000FF0AF0920E06E0920D0682EA92E00E9400
:101C4000F90480910D0690910E060E94FA048CEA28
:101C500092E00E94270560911D0670911E068091FA
:101C60001F069091200642E00E94330583EC92E02B
:101C70000E94F9046091210670912206809123064A
:101C80009091240642E00E94330584E592E00E9490
:101C9000A80462E370E080E090E00E941B0408C0AA
:101CA00060E08CE00E94910310920E0610920D06E7
:101CB00080911B0690911C06893C910534F48EE1BD
:101CC0000E946903019789F52AC08AEC92E00E947C
:101CD000270510921C0610921B0610922A061092DD
:101CE0002906109228061092270610922C061092B0
:101CF0002B0610922E0610922D0622E0E22E22E0F4
:101D0000F22EF7018081F2E0EF0EF11C61E00E94FB
:101D1000910322E1E21622E0F20699F7D0CF8091FA
:101D2000250690912606C29704F120E030E048E4B1
:101D300052E46091210670912206809123069091D1
:101D400024060E94E61787FF10C020E030E048E438
:101D500052E460911D0670911E0680911F069091BD
:101D600020060E94E61787FD5BC010921C061092A9
:101D70001B0610922C0610922B0610922E06109223
:101D80002D0610922A06109229061092280610920B
:101D9000270610921A061092190610921806109231
:101DA000170610921606109215061092140610923D
:101DB000130682E0E82E82E0F82EF7018081F2E03F
:101DC000EF0EF11C61E00E94910322E1E21622E095
:101DD000F20699F761E08CE00E94910364EF71E0F4
:101DE00080E090E00E941B0460E08CE00E94910380
:101DF00064EF71E080E090E00E941B0461E08CE001
:101E00000E94910364EF71E080E090E00E941B0467
:101E100060E08CE00E9491038AEE92E00E94270528
:101E200010922606109225068EE10E9469038130E9
:101E3000910509F0AEC020912506309126062F5F4E
:101E40003F4F30932606209325062C32314009F06F
:101E50003EC020912F0630913006232BC1F5909380
:101E6000300680932F0661E080E090E0F2D68DE0AE
:101E700093E00E94F90480912F06909130060E9411
:101E8000FA04109226061092250661E08CE00E946A
:101E900091036AEF70E080E090E00E941B0460E034
:101EA0008CE00E9491036AEF70E080E090E00E9475
:101EB0001B0461E08CE00E9491036AEF70E080E017
:101EC00090E00E941B0460E08CE00E9491038091EE
:101ED0002506909126068C32914009F053C08091DE
:101EE0002F0690913006019709F04CC010923006F1
:101EF00010922F0660E080E090E0ABD688E293E09D
:101F00000E94F90480912F06909130060E94FA04F5
:101F1000109226061092250661E08CE00E94910343
:101F20006AEF70E080E090E00E941B0460E08CE0CB
:101F30000E9491036AEF70E080E090E00E941B0431
:101F400061E08CE00E9491036AEF70E080E090E035
:101F50000E941B0460E08CE00E9491036AEF70E035
:101F600080E090E00E941B0461E08CE00E949103FD
:101F70006AEF70E080E090E00E941B0460E08CE07B
:101F80000E94910380912506909126060E94FA04F2
:101F90004BCF10921206109211068FE10E94690336
:101FA0008130910509F099C02091110630911206F7
:101FB0002F5F3F4F30931206209311062C32314091
:101FC00009F04EC09093100680930F0610921206EF
:101FD0001092110686E493E00E94270541C0019704
:101FE000D1F561E08CE00E9491036AEF70E080E03F
:101FF00090E00E941B0460E08CE00E9491036AEF75
:1020000070E080E090E00E941B0461E08CE00E94A0
:1020100091036AEF70E080E090E00E941B0460E0B2
:102020008CE00E9491036AEF70E080E090E00E94F3
:102030001B0461E08CE00E9491036AEF70E080E095
:1020400090E00E941B0460E08CE00E94910390925B
:10205000100680920F068FE10E946903019749F0F4
:1020600080910F0690911006181619060CF4B7CF40
:102070002DC0809111069091120601969093120640
:10208000809311068C329140D1F410921006109278
:102090000F06109212061092110688E593E00E9436
:1020A000270561E08CE00E94910368EE73E080E018
:1020B00090E00E941B0460E08CE00E9491038091FC
:1020C0001106909112060E94FA04C5CF8091110664
:1020D000909112060E94FA0460CF0E9455020C945F
:1020E000290860E085E00E949103F0921606E092D4
:1020F00015068DE693E00E94270564EF71E080E00D
:1021000090E00E941B04AEC861E085E00E9491034C
:1021100010921606109215068FE893E00E9427058C
:1021200064EF71E080E090E00E941B04AEC860E0C4
:1021300085E00E949103F0921606E092150681EB6D
:1021400093E00E94270564EF71E080E090E00E9438
:102150001B04B5C8109216061092150610921406AC
:1021600010921306109209061092080610920E069D
:1021700010920D0661E085E00E9491038DEC93E0E2
:102180000E94270564EF71E080E090E00E941B044C
:10219000A7C860E084E00E949103F0921406E092E8
:1021A000130680EE93E00E94270564EF71E080E063
:1021B00090E00E941B04B6C861E084E00E94910395
:1021C000109214061092130681E094E00E942705F5
:1021D00064EF71E080E090E00E941B04B6C860E00C
:1021E00084E00E949103F0921406E092130681E2CB
:1021F00094E00E94270564EF71E080E090E00E9487
:102200001B04C1C8109216061092150610921406EF
:102210001092130610920E0610920D0610920906E7
:102220001092080661E084E00E9491038FE394E03D
:102230000E94270564EF71E080E090E00E941B049B
:10224000B3C860E083E00E949103F0921A06E09226
:10225000190682E594E00E94270564EF71E080E0B2
:1022600090E00E941B04BCC861E083E00E949103DF
:1022700010921A06109219068AE694E00E94270529
:1022800064EF71E080E090E00E941B04BCC860E055
:1022900083E00E949103F0921A06E092190682E808
:1022A00094E00E94270564EF71E080E090E00E94D6
:1022B0001B04C5C810921A0610921906109218062F
:1022C0001092170610920E0610920D0610920B0631
:1022D00010920A0661E083E00E9491038FE994E086
:1022E0000E94270564EF71E080E090E00E941B04EB
:1022F000B7C860E082E00E949103F0921806E09275
:10230000170682EB94E00E94270564EF71E080E0FD
:1023100090E00E941B04C2C861E082E00E94910329
:1023200010920E0610920D061092180610921706C3
:1023300089EC94E00E94270564EF71E080E090E072
:102340000E941B04BEC860E082E00E949103F092EC
:102350001806E09217068FED94E00E94270564EFBF
:1023600071E080E090E00E941B04C9C810921A0638
:1023700010921906109218061092170610920E0667
:1023800010920D0610920B0610920A0661E082E090
:102390000E9491038AEF94E00E94270564EF71E0A8
:1023A00080E090E00E941B04BBC860E083E00E94D4
:1023B0009103F0921A06E092190682E594E00E94D9
:1023C000270564EF71E080E090E00E941B04CCC818
:1023D00060E083E00E94910310931A0600931906AF
:1023E00082E894E00E94270564EF71E080E090E0CD
:1023F0000E941B04CCC861E083E00E94910310920C
:102400001A061092190610920E0610920D068AE610
:1024100094E00E94270564EF71E080E090E00E9464
:102420001B04CAC860E083E00E949103F0921A0680
:10243000E092190682E894E00E94270564EF71E0BB
:1024400080E090E00E941B04D3C810921A061092FC
:102450001906109218061092170610920E06109286
:102460000D0661E083E00E9491038FE994E00E94F1
:102470002705109207061092060664EF71E080E0CF
:1024800090E00E941B04BFC860E083E00E949103BB
:1024900010931A060093190682E894E00E9427051B
:1024A00064EF71E080E090E00E941B04BFC81092CE
:1024B0001A0610921906109218061092170610921A
:1024C0000E0610920D0661E083E00E9491038FE9F1
:1024D00094E00E942705109207061092060664EF0A
:1024E00071E080E090E00E941B04ABC860E082E0F5
:1024F0000E949103F0921806E092170682EB94E096
:102500000E94270564EF71E080E090E00E941B04C8
:10251000B8C861E082E00E94910310921806109200
:10252000170610920E0610920D0689EC94E00E9498
:10253000270564EF71E080E090E00E941B04B4C8BE
:1025400060E082E00E949103F0921806E092170684
:102550008FED94E00E94270564EF71E080E090E049
:102560000E941B04C1C810921A06109219061092FC
:10257000180610921706D0931406C09313061092F3
:1025800007061092060610920E0610920D0661E0E4
:1025900082E00E9491038DE095E00E94270564EFA0
:1025A00071E080E090E00E941B04AAC860E085E032
:1025B0000E949103F0921606E092150683E295E0E0
:1025C0000E94270564EF71E080E090E00E941B0408
:1025D000B5C861E085E00E94910310921606109242
:1025E000150610920E0610920D068EE395E00E94DD
:1025F000270564EF71E080E090E00E941B04B4C8FE
:1026000060E085E00E949103F0921606E0921506C4
:1026100081EB93E00E94270564EF71E080E090E099
:102620000E941B04C4C81092160610921506109240
:1026300014061092130610920E0610920D0661E019
:1026400085E00E9491038DEC93E00E94270564EFE2
:1026500071E080E090E00E941B04B5C860E084E077
:102660000E949103F0921406E092130689E595E02A
:102670000E94270564EF71E080E090E00E941B0457
:10268000C5C861E084E00E94910383E795E00E9461
:10269000270564EF71E080E090E00E941B04D2C83F
:1026A00061E084E00E9491031092140610921306D8
:1026B00010920E0610920D0683E795E00E94270502
:1026C00064EF71E080E090E00E941B04D2C860E0FB
:1026D00084E00E949103F0921406E092130681E2D6
:1026E00094E00E94270564EF71E080E090E00E9492
:1026F0001B04E4C860E084E00E949103D0931406B8
:10270000C093130681E294E00E94270564EF71E014
:1027100080E090E00E941B04F8C810921606109208
:102720001506109214061092130610920E061092BF
:102730000D0661E084E00E9491038CE895E00E9420
:10274000270564EF71E080E090E00E941B04E9C877
:102750008091270690912806892B09F023C9809142
:102760002B0690912C06892B09F01CC980912D060F
:1027700090912E06892B09F015C982E10E94690308
:102780007C0191E0E916F10409F00CC927C18091A0
:10279000290690912A06019709F00AC98091270617
:1027A00090912806892B09F003C980912B069091FE
:1027B0002C06892B09F0FCC880912D0690912E06DD
:1027C000892B09F41BC1F4C88091290690912A062F
:1027D000892B09F0F4C882E10E946903892B09F072
:1027E000EEC883E10E946903892B09F41BC1E7C885
:1027F0008091290690912A06019709F0E6C822C126
:102800008091290690912A06892B09F0E4C88091CD
:10281000270690912806892B09F0DDC880912B06A8
:1028200090912C06892B09F0D6C880912D069091A5
:102830002E06892B09F0CFC883E10E9469037C0131
:10284000019709F0C8C812C1809127069091280607
:10285000019709F0C6C81AC18091270690912806F1
:10286000892B09F0C5C883E10E946903892B09F00F
:10287000BFC882E10E946903892B09F41BC1B8C853
:102880008091270690912806019709F0B7C822C1C8
:102890008091290690912A06892B09F0B5C880916C
:1028A000270690912806892B09F0AEC880912B0647
:1028B00090912C06892B09F0A7C880912D06909144
:1028C0002E06892B09F0A0C882E10E9469037C01D1
:1028D000019709F099C812C180912D0690912E069A
:1028E000019709F097C882E10E946903019709F0F6
:1028F00091C814C18091290690912A06892B09F06C
:102900008FC88091270690912806892B09F088C8E6
:1029100080912B0690912C06892B09F081C880911B
:102920002D0690912E06892B09F07AC882E10E942B
:1029300069037C0181E0E816F10409F071C8FEC06A
:1029400080912B0690912C06019709F06FC882E1C7
:102950000E946903019709F069C800C182E10E94E1
:102960006903019709F069C810921C0610921B06B2
:1029700010922C0610922B0610922E0610922D0605
:1029800010922A0610922906109228061092270605
:1029900010921A0610921906109218061092170635
:1029A0001092160610921506109214061092130635
:1029B00092E0E92E92E0F92EF7018081F2E0EF0E2D
:1029C000F11C61E00E94910322E1E21622E0F2068E
:1029D00099F780E792E00E9427052FC860E086E023
:1029E0000E949103F0922A06E092290664EF71E0BA
:1029F00080E090E00E941B040C94D20C61E086E021
:102A00000E94910310922A061092290610920E0637
:102A100010920D0664EF71E080E090E00E941B04CC
:102A20000C94D80C60E086E00E949103F0922A0694
:102A3000E092290664EF71E080E090E00E941B04C0
:102A40000C94DF0C61E086E00E94910310922A064C
:102A50001092290610920E0610920D0664EF71E096
:102A600080E090E00E941B040C94E50C60E087E09D
:102A70000E949103F0922806E092270664EF71E02D
:102A800080E090E00E941B040C94EB0C61E087E076
:102A90000E949103109228061092270610920E06AB
:102AA00010920D0664EF71E080E090E00E941B043C
:102AB0000C94F10C60E087E00E949103F0922806EC
:102AC000E092270664EF71E080E090E00E941B0432
:102AD0000C94F80C61E087E00E94910310922806A4
:102AE0001092270610920E0610920D0664EF71E008
:102AF00080E090E00E941B040C94FE0C60E088E0F3
:102B00000E949103F0922E06E0922D0664EF71E090
:102B100080E090E00E941B040C94040D61E088E0CA
:102B20000E94910310922E0610922D0664EF71E020
:102B300080E090E00E941B040C940A0D60E089E0A4
:102B40000E949103F0922C06E0922B0664EF71E054
:102B500080E090E00E941B040C94100D61E089E07D
:102B60000E94910381EA95E00E94270510922C06AD
:102B700010922B0610921C0610921B0610922E0625
:102B800010922D0664EF71E080E090E00E941B043B
:102B90000C94160D80910A0690910B060196909365
:102BA0000B0680930A0685EB95E00E94F90480915C
:102BB0000A0690910B060E94FA040C94C90D8091AC
:102BC00008069091090601969093090680930806DD
:102BD0008CEC95E00E94F90480910806909109061A
:102BE0000E94FA040C94E30DEAE3F6E013821282E9
:102BF00088EE93E0A0E0B0E084839583A683B7835A
:102C000080E392E09183808385EC90E095878487D0
:102C100084EC90E09787868780EC90E0918B808BA6
:102C200081EC90E0938B828B82EC90E0958B848B8F
:102C300086EC90E0978B868B118E128E138E148EFD
:102C40000895F999FECF92BD81BDF89A992780B574
:102C50000895262FF999FECF1FBA92BD81BD20BDE0
:102C60000FB6F894FA9AF99A0FBE01960895505843
:102C7000BB27AA270ED070C161D130F066D120F0F9
:102C800031F49F3F11F41EF456C10EF4E095E7FBBA
:102C90004CC1E92F72D180F3BA176207730784071A
:102CA000950718F071F49EF58AC10EF4E0950B2E8D
:102CB000BA2FA02D0B01B90190010C01CA01A0018E
:102CC0001124FF27591B99F0593F50F4503E68F1E9
:102CD0001A16F040A22F232F342F4427585FF3CF2A
:102CE000469537952795A795F0405395C9F77EF4FB
:102CF0001F16BA0B620B730B840BBAF09150A1F044
:102D0000FF0FBB1F661F771F881FC2F70EC0BA0FC9
:102D1000621F731F841F48F4879577956795B79551
:102D2000F7959E3F08F0B3CF9395880F08F0992749
:102D3000EE0F979587950895D4D008F481E0089513
:102D40000CD00AC102D140F0F9D030F021F45F3F3D
:102D500019F0EBC0511134C1EEC00FD198F3992393
:102D6000C9F35523B1F3951B550BBB27AA2762174F
:102D70007307840738F09F5F5F4F220F331F441F94
:102D8000AA1FA9F333D00E2E3AF0E0E830D09150CC
:102D90005040E695001CCAF729D0FE2F27D0660FB9
:102DA000771F881FBB1F261737074807AB07B0E8F8
:102DB00009F0BB0B802DBF01FF2793585F4F2AF00E
:102DC0009E3F510568F0B1C0FBC05F3FECF3983EF9
:102DD000DCF3869577956795B795F7959F5FC9F76B
:102DE000880F911D9695879597F90895E1E0660FF4
:102DF000771F881FBB1F621773078407BA0720F06D
:102E0000621B730B840BBA0BEE1F88F7E0950895D5
:102E1000BCD088F09F5790F0B92F9927B751A0F0F8
:102E2000D1F0660F771F881F991F1AF0BA95C9F75E
:102E300012C0B13081F0C3D0B1E00895C0C0672F97
:102E4000782F8827B85F39F0B93FCCF3869577950E
:102E50006795B395D9F73EF49095809570956195F7
:102E60007F4F8F4F9F4F0895E89409C097FB3EF422
:102E700090958095709561957F4F8F4F9F4F9923C7
:102E8000A9F0F92F96E9BB279395F6958795779545
:102E90006795B795F111F8CFFAF4BB0F11F460FF05
:102EA0001BC06F5F7F4F8F4F9F4F16C0882311F05D
:102EB00096E911C0772321F09EE8872F762F05C071
:102EC000662371F096E8862F70E060E02AF09A950C
:102ED000660F771F881FDAF7880F9695879597F901
:102EE0000895990F0008550FAA0BE0E8FEEF16169B
:102EF0001706E807F907C0F012161306E407F507EE
:102F000098F0621B730B840B950B39F40A2661F061
:102F1000232B242B252B21F408950A2609F4A14004
:102F2000A6958FEF811D811D089597F99F6780E811
:102F300070E060E008959FEF80EC089500240A940B
:102F40001616170618060906089500240A94121684
:102F50001306140605060895092E0394000C11F4B7
:102F6000882352F0BB0F40F4BF2B11F460FF04C064
:102F70006F5F7F4F8F4F9F4F089557FD9058440FBD
:102F8000551F59F05F3F71F04795880F97FB991FC8
:102F900061F09F3F79F08795089512161306140685
:102FA000551FF2CF4695F1DF08C016161706180612
:102FB000991FF1CF86957105610508940895E894ED
:102FC000BB2766277727CB0197F908958ADF08F496
:102FD0008FEF08950BD0C0CFB1DF28F0B6DF18F027
:102FE000952309F0A2CFA7CF1124EACFC6DFA0F323
:102FF000959FD1F3950F50E0551F629FF001729F8E
:10300000BB27F00DB11D639FAA27F00DB11DAA1FAC
:10301000649F6627B00DA11D661F829F2227B00DF9
:10302000A11D621F739FB00DA11D621F839FA00D84
:10303000611D221F749F3327A00D611D231F849FD4
:10304000600D211D822F762F6A2F11249F5750402B
:103050008AF0E1F088234AF0EE0FFF1FBB1F661FC6
:10306000771F881F91505040A9F79E3F510570F07F
:103070005CCFA6CF5F3FECF3983EDCF38695779567
:103080006795B795F795E7959F5FC1F7FE2B880F7A
:10309000911D9695879597F9089523DF880B990BD5
:1030A000089597FB072E16F4009406D077FD08D0FC
:1030B00035D007FC05D03EF4909581959F4F08953B
:1030C000709561957F4F0895A1E21A2EAA1BBB1B34
:1030D000FD010DC0AA1FBB1FEE1FFF1FA217B307E4
:1030E000E407F50720F0A21BB30BE40BF50B661FFA
:1030F000771F881F991F1A9469F7609570958095BE
:1031000090959B01AC01BD01CF010895EE0FFF1F0B
:10311000881F8BBF0790F691E02D1994AA1BBB1B4B
:1031200051E107C0AA1FBB1FA617B70710F0A61BC7
:10313000B70B881F991F5A95A9F780959095BC01E8
:10314000CD01089581E090E0F89400C0F894FFCF9D
:103150004A000900080007000600020003000400FE
:1031600005004B0014001500160017001900180088
:103170001A001B001C001D001E001F0000000000A4
:10318000EE01580187013402B8019601AA01417588
:10319000746F6D617469636F2061637469766164D3
:1031A0006F3A20000D0A004175746F6D6174696398
:1031B0006F20446573616374697661646F3A2000BF
:1031C0005061736F20706F72206171756900696E54
:1031D000636C696E616E646F20636F6E743A202059
:1031E0000053756269656E646F20636F6E743A2078
:1031F0002000636F6E74352D2D2D2D002D2D2D2D5E
:103200002D2D2D2D2D2D2D2D2D2D2D2D2D2D2D2DEE
:103210002D2D002020202020200052414D50412003
:103220006170616761646120706F72207469656D9F
:10323000706F2064652075736F0050756573746FCF
:1032400020746F646173206C6173207661726961B0
:10325000626C657320656E204345524F004D6F646C
:103260006F204175746F6D617469636F2041637481
:10327000697661646F3A20004D6F646F20617574E8
:103280006F6D617469636F204465736163746976FF
:1032900061646F3A2000436F6E74726F6C20426CF1
:1032A0006F71756561646F00436F6E74726F6C202F
:1032B000446573626C6F71756561646F00436F6D17
:1032C00069656E7A612070657274757261206465DB
:1032D00020707565727461204772616E6465006468
:1032E000657469656E6520617065727475726120C0
:1032F000646520707565727461204772616E6465E3
:1033000000636F6E74696E756120636F6E2061700B
:1033100065727475726120646520706700707565F0
:1033200072746120616269657274612C207333006C
:10333000436F6D69656E7A6120636965727265209D
:10334000646520707565727461204772616E646592
:103350000064657469656E652063696572726520D5
:10336000646520707565727461204772616E646572
:1033700000636F6E74696E756120636F6E206369A0
:103380006572726520646520707565727461007085
:10339000756572746120636572726164612C20735B
:1033A0003400436F6D69656E7A6120706572747563
:1033B0007261206465207063680064657469656E7D
:1033C0006520617065727475726120646520706338
:1033D0006800636F6E74696E756120636F6E206143
:1033E0007065727475726120646520706368007026
:1033F000756572746120616269657274612C2073F5
:103400003200436F6D69656E7A612063696572721F
:1034100065206465207063680064657469656E6525
:10342000206369657272652064652070636800635B
:103430006F6E74696E756120636F6E20636965726B
:1034400072652064652070636800707565727461D0
:1034500020636572726164612C207332007075653F
:1034600072746120636820636572726164612C20EC
:10347000733200436F6D69656E7A61207065727496
:103480007572612064652070756572746100646591
:103490007469656E6520617065727475726120640F
:1034A000652070756572746100436F6D69656E7A31
:1034B000612063696572726520646520707565724C
:1034C00074610064657469656E6520636965727214
:1034D0006520646520707565727461007075657231
:1034E0007461206720636572726164612C2073349B
:1034F0000052616D706120537562696461206120C2
:10350000746F7065007063682061626965727461D0
:1035100020636F6E747063683A20200070672061CA
:1035200062696572746120636F6E7470673A2020FF
:0E353000006E616E00696E66006F76660000C8
:00000001FF
